:020000040800F2
:10000000004600209D01000805300008952A0008E0
:10001000013000084D070008913A00080000000078
:100020000000000000000000000000008130000817
:100030005D07000800000000113000086932000868
:10004000B7010008B7010008B7010008B7010008B0
:10005000B7010008B7010008B7010008B7010008A0
:10006000B7010008B7010008B7010008B701000890
:10007000B7010008B7010008B7010008B701000880
:1000800051070008B7010008B7010008B7010008D0
:10009000B7010008B7010008B7010008B701000860
:1000A0005533000875330008B7010008B701000890
:1000B000B7010008B7010008B7010008B701000840
:1000C000B7010008B7010008B7010008B701000830
:1000D000B7010008BD390008C9390008B701000898
:1000E000B7010008B7010008B7010008B701000810
:1000F000B7010008B7010008B7010008B701000800
:10010000B7010008B7010008B7010008B7010008EF
:10011000B7010008B7010008B7010008B7010008DF
:10012000B7010008B7010008B7010008B7010008CF
:10013000B7010008B7010008B7010008B7010008BF
:10014000B7010008B7010008B7010008B7010008AF
:10015000B7010008B7010008B7010008B70100089F
:10016000B7010008B7010008B7010008B70100088F
:10017000B7010008B7010008B7010008000000003F
:10018000B7010008B7010008DFF80CD000F05CFAF6
:1001900000480047F53A000800460020064880471E
:1001A00006480047FEE7FEE7FEE7FEE7FEE7FEE75C
:1001B000FEE7FEE7FEE7FEE741330008890100089D
:1001C0002DE9F05F0546002092469B46884606468C
:1001D000814640241BE0284641464746224600F01F
:1001E0006AF853465A46C01A914110D31146184630
:1001F000224600F051F82D1A67EB01084F462246BF
:100200000120002100F048F817EB00094E41201EA4
:10021000A4F10104DFDC484631462A464346BDE8E6
:10022000F09F40EA01039B0703D009E008C9121FB1
:1002300008C0042AFAD203E011F8013B00F8013BA0
:10024000521EF9D2704700F0004230F000400AD050
:10025000C10D01F56071C0F3160042EA0151C208F8
:1002600040071143704700200146704730B50B46E8
:10027000014600202022012409E021FA02F59D42D6
:1002800005D303FA02F5491B04FA02F52844151EAA
:10029000A2F10102F1DC30BD202A04DB203A00FA91
:1002A00002F1002070479140C2F1200320FA03F3CD
:1002B000194390407047202A04DB203A21FA02F0CB
:1002C0000021704721FA02F3D040C2F12002914090
:1002D0000843194670472DE9FE4F804681EA030026
:1002E000C00F0C46009021F0004123F00045B8EB10
:1002F0000200A94105D24046214690461C460B46C5
:10030000024623F00040104347D0270DC7F30A00F0
:10031000C3F30A510290401A019040286BDAC3F3EC
:10032000130040F4801B0098924620B10023D2EBCA
:10033000030A63EB0B0B01985946C0F1400250468B
:10034000FFF7AAFF06460D4650465946019A00F0AF
:100350008DF910EB08006141002487EA115284EA0C
:10036000E7731A4340D0009A62B3019A012A4FEA18
:10037000075215DC001B61EB02014FF0004202EA5C
:100380000752CDE90042001C41F5801132462B4650
:1003900000F08DF903B0BDE8F08F40462146F9E743
:1003A000001B61EB0201001C41F5801300185B414A
:1003B0002018A2F5001747EB030140EAD570B619E3
:1003C0006D4111E06D084FEA360645EAC0754FEA07
:1003D0000752001B61EB0201001C41F58011490826
:1003E0004FEA30000019514132462B4603B0BDE8B8
:1003F000F04F00F04DB90098012240000023D0EBEF
:10040000020263EBE073009821464FEAE074B8EB18
:10041000000061EB0401E9E783F000435BE781F052
:10042000004158E72DE9FE4F81EA030404F000443F
:1004300021F0004100944FF0000B23F0004350EAFC
:1004400001045ED052EA03045BD0C3F30A54C1F343
:100450000A552C44A4F2F3340194A0FB0254C1F3D6
:10046000130141F48011C3F3130343F4801301FB20
:10047000024400FB034E840A970A44EA815447EA87
:100480008357A4FB076802958D0A05FB07854FEA91
:10049000932C04FB0C542705029D4FEA065847EAAB
:1004A0001637B5EB08056EEB070C870E920E47EA80
:1004B000811742EA8312A7FB0201B6EB0B0164EB42
:1004C00000042B0D43EA0C335E1844EB1C50DA4653
:1004D0005146E7FB0201C5F313044FEA0B3343EA2D
:1004E00014534FEA0432019C43EA0603A4F10C04BE
:1004F0000294009CCDE900B400F0D9F803B0BDE847
:10050000F08F00200146F9E72DE9F04D81EA030460
:1005100004F0004B21F0004514464FF0000A23F090
:10052000004150EA050220D054EA01021DD0C5F373
:100530000A570246C5F31303C1F31300C1F30A5669
:1005400040F4801543F48013A7EB0608101BD64631
:1005500008F2FD3873EB050002D308F1010801E051
:1005600092185B41B8F1000F03DA00200146BDE8A4
:10057000F08D00204FF48011064684460EE0171BD4
:1005800073EB050705D3121B63EB050306434CEA27
:10059000010C49084FEA300092185B4150EA01070C
:1005A000EDD152EA030012D082EA040083EA050189
:1005B000084305D0101BAB4106D20122002306E000
:1005C00000224FF0004302E06FF0010253101AEBDB
:1005D00006004CEB085110EB0A0041EB0B01BDE8A3
:1005E000F04D00F055B8C1F30A52C1F3130140F2C7
:1005F000FF3341F480119A4202DA0020014670472D
:1006000040F233439A42A2F2334202DC5242FFF7F5
:1006100052BEFFF741BE000030B5041E71F1000468
:1006200004DB4FF00044404264EB0101141E73F1FF
:10063000000405DB1C464FF00043524263EB040309
:10064000994208BF904230BD064C074D06E0E06875
:1006500040F0010394E8070098471034AC42F6D309
:10066000FFF796FD185B0008385B0008202A06DBC0
:10067000CB17203A41FA02F043EAE07306E041FA70
:1006800002F3D040C2F1200291400843194670475E
:1006900010B5141E73F1000408DA401C41F100018A
:1006A00092185B411A4301D120F0010010BD2DE9E1
:1006B000F04D92469B4611B1B1FA81F202E0B0FAD8
:1006C00080F220329046FFF7E7FD04460F4640EAED
:1006D0000A0041EA0B0153465A46084313D011461B
:1006E00053EA010019D0C8F140025046FFF7E3FD7C
:1006F00005460E46504659464246FFF7CDFD084393
:1007000005D0012004E020463946BDE8F08D0020E8
:10071000054346EAE0762C4337430A986305E40A2A
:10072000A0EB08000022FD0A44EA47540A3002D533
:1007300000200146E9E7010510196941DDE9084596
:1007400000196941BDE8F04DA2E70000FEE7000096
:1007500040F2F400C2F2000000F060B87047000000
:1007600072B600BFFEE7000070B5866D044600F06B
:1007700011FB94F83510022928D105462068216C18
:10078000026822F016020260426922F08002426191
:1007900009B9A16C19B1016821F008010160016873
:1007A00021F00101016000BF20680068C00715D07A
:1007B00000F0F0FA401B0628F6D3202060650320E5
:1007C00084F83500002184F8341070BD8020606505
:1007D0000120002184F8341070BD00BFE06D3F217E
:1007E00001FA00F0B060012084F8350000200021FB
:1007F00084F8341070BD000090F83510022909D13A
:10080000052180F835100068016821F001010160C0
:10081000002070478021416501207047F0B581B00C
:1008200004460020009040F20C00C2F20000026872
:10083000D4E9166048F2B51337680821C1F64E3383
:1008400081403942A2FB03250CD0226813685B0764
:1008500008D5136823F004031360B160616D41F0A3
:100860000101616501218140394208D02268526945
:10087000120604D5B160616D41F002016165042189
:100880008140394208D022681268920704D5B160CD
:10089000616D41F00401616510218140394217D03A
:1008A00020680268120713D5B1600268016852031C
:1008B00008D4C90508D4016821F008010160216C41
:1008C00021B905E008033FD4216C09B120468847CF
:1008D000E16D202000FA01F23A4241D0206803681D
:1008E000DB063DD5B26094F835300268052B1BD18C
:1008F00022F016020260426922F080024261226CFC
:100900000AB9A26C1AB1026822F0080202603F2004
:100910008840B060012084F83500216D0020002956
:1009200084F8340052D157E00168520310D4C9054D
:1009300012D4016821F010010160012084F8350013
:10094000002084F8340007E0A16C0029BED1BFE785
:10095000080301D4616C00E0E16B09B120468847CF
:10096000606DC8B3606DC0072ED0052084F83500D7
:100970002068A90A026822F001020260009A01328E
:100980008A4200921AD80268D20717D0009A013220
:100990008A42009212D80268D2070FD0009A013220
:1009A0008A4200920AD80268D20707D0009A013220
:1009B0008A42009202D80268D207DFD1012084F86F
:1009C0003500002084F83400E16C29B1204601B0E4
:1009D000BDE8F040084700BF01B0F0BD2DE9F0418F
:1009E000044600F0D7F9ECB10546022084F8350042
:1009F0000020216884F83400086820F001000860B5
:100A000021680868C00711D000F0C4F9401B052810
:100A1000F6D9032520230320636584F83550BDE80B
:100A2000F08100BF0120BDE8F08100BF086848F2F6
:100A30003F02CFF21002D4E9013500EA020C04F1C2
:100A40000C0898E8C10143EA0C032B431843D4E98E
:100A5000072E304338431043626A40EA0E00042AEE
:100A600040EA08031CD1206BD4E90A2E40EA0E00AC
:100A7000184308604869BEF1000F20F0030040EA07
:100A8000020040F0040C11D0B8F5005F36D0B8F188
:100A9000000F45D1022A46D0012A3BD032B942E0AC
:100AA0000B60486920F0070040EA020C01F0F800F2
:100AB0004AF6AB221038CAF6AA22A0FB02231A0972
:100AC00045F6EA23C0F600039A5C40F2FF335F2844
:100AD0004FF03F00C1F814C021EA030100FA02F010
:100AE00088BF0431C4E91612886000230125002064
:100AF000636584F83550BDE8F08100BF032AD5D87E
:100B0000012540230120DFE802F0030E030500BFAA
:100B100082E700BFAEF1C070B0FA80F0400904E097
:100B2000032A04D3C2D1CEF300600028BED0012531
:100B300040230120636584F83550BDE8F081000052
:100B400070B590F834C0BCF1010F46D04FF0010CE5
:100B500080F834C0D0F858E090F835C0BCF1010FEF
:100B600038D14FF0020C80F835C04FF0000CC0F8BF
:100B700054C0D0F800C08468056CC06DDCF800601B
:100B8000402C26F48026CCF80060CCF804300B46CC
:100B900004BF13460A463F2101FA00F0CCF80830A2
:100BA000CCF80C20CEF80800DCF8000040F016006D
:100BB000CCF800002DB1DCF8000040F00800CCF8C3
:100BC0000000DCF8000040F00100CCF8000000203C
:100BD00070BD00BF002180F83410022070BD0000FD
:100BE0002DE9F04F82B000F13E4241F6004502F19E
:100BF000FF77C4F20205082243F6004E4FEAB726FB
:100C0000A84208BF0722C4F2010E072E38BF4FEAE0
:100C1000B7220125002600274FF00008009208E0C7
:100C200008F101080437B8F1100F06F1020600F0D0
:100C3000A7800C6805FA08F914EA090FF0D0D1F87A
:100C400004B003220BF0030CACF10104B240012C00
:100C50006FEA020A10D88268CC6802EA0A02B4403D
:100C6000224382604268CBF3001422EA090204FAAC
:100C700008F42243426005E0BCF1030F02D14FF0BB
:100C8000030C20E0C2688C6802EA0A02B4402243E6
:100C9000BCF1020FC26016D16FF0030202EA5802E3
:100CA0000244D2F820C007F01C050F230C69AB40AA
:100CB0002CEA030304FA05F52B431362D1F804B0C0
:100CC00001250BF0030C02680CFA06F302EA0A0293
:100CD0001A431BF4403F0260A2D0002243F64403B3
:100CE0000192C4F202031A684FF6084C42F48042A3
:100CF0001A601A68CFF6FF7C02F480420192019AD2
:100D000028F00302724452F80C3007F00C050F244F
:100D1000AC40A343009C04FA05F52B4342F80C3089
:100D2000DEF808204B6842EA090543F60C4CDC0269
:100D300058BF22EA0905CEF80850C4F2010CDCF8CD
:100D400000209C0242EA090558BF22EA0905CCF8B6
:100D50000050DEF804209C0342EA090558BF22EA4D
:100D60000905CEF80450DEF80020DB0342EA09054D
:100D700058BF22EA0905CEF80050012550E700BF10
:100D800002B0BDE8F08F0000002A08BF09048161AD
:100D90007047000043F6A870C2F200000068704778
:100DA00040F2040043F6A871C2F20000C2F2000152
:100DB00000780A68104408607047000080B543F668
:100DC0000040C4F20200016841F400710160016852
:100DD00041F480610160016841F480710160032089
:100DE00000F0C4F8052000F005F800F05DF80020E0
:100DF00080BD0000B0B586B0002543F644010195E2
:100E0000C4F202010A68044642F480320A600968AA
:100E100001A801F4803101910199694600F066F959
:100E200000F098F94DF683614000C4F21B31A0FB3D
:100E300001014FF0FF3000EB914140F2E41044F229
:100E40000002C2F20000C4F2010240F2E733C0E93E
:100E50000021C0E902530561856100F005FC0546EB
:100E600010B1284606B0B0BD40F2E410C2F2000056
:100E700000F054FC05460028F3D1182000F036F8A5
:100E80000F2C0DD8182021460022002500F042F832
:100E900040F20800C2F200000460284606B0B0BD6F
:100EA0000125284606B0B0BD82B0002043F64001BF
:100EB0000190C4F202014A6842F480424A604A68E2
:100EC00002F480420192019A00900868002240F0EA
:100ED0008050086008680F2100F080500090009852
:100EE0006FF0010002B000F015B80000002848BF04
:100EF0007047C1B200F01F00012202FA00F04EF26A
:100F00000012CEF2000242EAD10121F00301086092
:100F10007047000010B54EF60C5CCEF2000CDCF809
:100F20000030C3F3022E8EF00704042C28BF0424E3
:100F3000BEF103034FF0FF3E0EFA04F438BF002366
:100F4000A14399400EFA03F39A43114300F00F02B4
:100F500000F160430901043A03F564436244002848
:100F600048BF02F10C03197010BD00004EF60C5181
:100F7000CEF200010A684FF6FF031A4060F30A221E
:100F800042F0806040F0FD70086070472DE9F0414C
:100F9000002800F08B8043F60808C4F202080446DB
:100FA000D8F8F8030D4600F00700884207D288F809
:100FB000F853D8F8F80300F00700A84276D120686B
:100FC000810717D5410705D5D8F8001041F4E05145
:100FD000C8F80010010705D5D8F8001041F46041A9
:100FE000C8F80010D8F80010A26821F0F0011143F1
:100FF000C8F80010C0073FD1D8F8F80300F0070088
:10100000A84207D988F8F853D8F8F80300F0070089
:10101000A8424BD12068410707D5D8F80010E268F4
:1010200021F4E0511143C8F80010000708D5D8F8A2
:101030000000216920F4604040EAC100C8F80000C7
:1010400000F09CF8D8F8001045F6D222C1F3031145
:10105000C0F60002515C40F20C0220FA01F140F2AD
:101060000800C2F200000068C2F200021160FFF73F
:10107000C1FE0020BDE8F0816068811E022907D210
:1010800058F8081C89015CBF0120BDE8F08111E01F
:10109000012807D158F8081C89035CBF0120BDE86E
:1010A000F08107E058F8081C890703D40120BDE847
:1010B000F08100BFD8F8001021F003010843C8F800
:1010C0000000FFF767FE064641F28837D8F80000B7
:1010D000616800F00C00B0EB810F8DD0FFF75AFE75
:1010E000801BB842F2D90320BDE8F0810F220260D4
:1010F00043F60802C4F20202136803F003034360DC
:10110000136803F0F0038360136803F4E053C360D3
:10111000D2F800C04FF4E05303EADC030361D2F8D5
:10112000F80300F0070008607047000040F20C0070
:1011300043F60801C2F20000C4F202010068096827
:1011400045F6E222C1F38221C0F60002515CC8409C
:101150007047000040F20C0043F60801C2F20000A4
:10116000C4F202010068096845F6E222C1F3423187
:10117000C0F60002515CC8407047000010B543F64D
:101180000404C4F20204606800F00C0142F2004062
:101190000829C0F2F40007D0042918BF10BD41F29D
:1011A0000020C0F27A0010BD216801F03F022168E2
:1011B00023684902C3F3881106D4A1FB0001002370
:1011C000FEF7FEFF07E000BF41F20020C0F27A0008
:1011D0004843B0FBF2F021680222C1F3014102EB67
:1011E0004101B0FBF1F010BD2DE9F04182B00028C3
:1011F00068D00446007843F60006C007C4F2020631
:101200000BD0B06800F00C00042840F09F803068DC
:10121000800302D56068002854D0207880071AD552
:10122000B06810F00C0F09D0B06800F00C0008286E
:1012300040F0A6807068400200F1A280306880070C
:1012400002D5E06801283DD13068216920F0F8001E
:1012500040EAC10030602078000737D4207840078A
:101260004CD4A56955B3B06800F00C00082840F0D4
:10127000BB80012D26D07068E16900F480028A42AB
:1012800020D1216A00F03F028A421BD147F6C0718B
:10129000626A0140B1EB821F14D1A16A4FF6FF735D
:1012A000C903994300F44032A1F580318A4209D143
:1012B000E16A00F07060B0EB016F03D1002002B072
:1012C000BDE8F081012002B0BDE8F081606900282E
:1012D00040F20000C4F2472076D00121C0F8801E01
:1012E000FFF758FD054600BF706F8007B6D4FFF7C3
:1012F00051FD401B0228F7D9DDE000BF306C10F033
:1013000080580AD100200190306C40F08050306449
:10131000306C00F080500190019847F20007C4F251
:1013200000073868C00541D4386840F480703860E0
:10133000FFF730FD054600BF3868C00536D4FFF71B
:1013400029FD401B0228F7D9B5E000BFB06800F0C6
:101350000C00082803D1706840023FF558AF606860
:10136000B0F5803F07D0B0F5A02F40F08D803068F9
:1013700040F480203060306840F4803030608DE090
:10138000E068002852D00020C4F24720012101600B
:10139000FFF700FD054600BF306880073FF554AFFA
:1013A000FFF7F8FC401B0228F6D984E0A06801286A
:1013B00005D005284ED1306F40F004003067306F03
:1013C00040F0010030674FE00021C0F8801EFFF7B9
:1013D000E1FC0546706F80077FF540AFFFF7DAFC50
:1013E000401B0228F6D966E00027C4F247270020F8
:1013F0003866FFF7CFFC022D05460BD1306880011F
:101400005ED5FFF7C7FC401B02284FF00300F5D95B
:1014100055E700BF306880017FF550AFFFF7BAFC99
:10142000401B02284FF00300F4D948E70020C4F223
:10143000472000210160FFF7ADFC054630688007BA
:101440007FF509AFFFF7A6FC401B02284FF0030011
:10145000F4D934E7316F002821F001013167316F91
:1014600021F0040131674DD0FFF794FC054641F2AD
:10147000883700BF306F800756D4FFF78BFC401BC6
:10148000B842F7D917E000BF3168002821F4803155
:101490003160316821F4802131604FD0FFF77AFC50
:1014A000054600BF306880033FF5B7AEFFF772FC1A
:1014B000401B6428F6D9032002B0BDE8F08100BFCC
:1014C00004F11C052FCD084340EA8210D9034FF6E2
:1014D000FF729143A1F5803140EA056008437060D6
:1014E00001203866FFF756FC044600BF30688001D3
:1014F0003FF5E4AEFFF74EFC001B02284FF003005F
:10150000F4D9DCE6FFF746FC054641F2883700BF18
:10151000306F800708D5FFF73DFC401BB8424FF005
:101520000300F5D9CBE600BFB8F1000F7FF499AE08
:10153000306C20F08050306493E600BFFFF72AFC47
:10154000054600BF306880037FF567AEFFF722FCD9
:10155000401B64284FF00300F4D9B0E67047000048
:1015600070470000B0B590F83C20012A04BF02206B
:10157000B0BD01F108053CCDD1E900CE23F47C5388
:1015800022F470521A432EF4F0431A432CF4E04331
:101590001A4324F4C0431A432A43C96922F48042FF
:1015A000036811435964002180F83C100846B0BD1F
:1015B00010B590F83C20012A4FF0020251D080F87B
:1015C0003D200268D2F804E0D2F808C00C682EF082
:1015D0007003234341F2FF74C4F20004A24253603B
:1015E0000EDC40F2FF73C4F200039A4216DCB2F143
:1015F000804F2BD040F20043C4F2000324E000BF30
:1016000040F2FF33C4F201039A4213DC41F60003B7
:10161000C4F200039A4219D0002313E040F60003FD
:10162000C4F200039A4211D040F60043C4F2000312
:101630000AE000BF44F20003C4F201039A4205D05D
:1016400040F20043C4F201039A4204D149682CF0ED
:101650008003194391600121002280F83D1080F839
:101660003C20104610BD0000002804BF0120704738
:1016700010B5044690F83D0028B9002084F83C00DD
:10168000204600F01FF8022084F83D002068211D4C
:1016900001F076FE012084F8460084F83E0084F8CC
:1016A0003F0084F8400084F8410084F8420084F848
:1016B000430084F8440084F8450084F83D0000208D
:1016C00010BD000080B582B000680021C4F20101A5
:1016D00088421CBF02B080BD0020019043F6440048
:1016E000C4F202000168002241F0010101600068BB
:1016F000052100F00100019001981820FFF70AFC75
:101700001820FFF7F3FB192005210022FFF702FC48
:10171000192002B0BDE88040FFF7E8BB90F83D100B
:1017200001291CBF01207047022180F83D1000688C
:1017300041F2FF72C168C4F20002904241F001011F
:10174000C1600DDC40F2FF71C4F20001884215DC7B
:10175000B0F1804F2AD040F20041C4F2000123E0F2
:1017600040F2FF31C4F20101884213DC41F600016E
:10177000C4F20001884219D0002113E040F60001B4
:10178000C4F20001884211D040F60041C4F20001C9
:101790000AE000BF44F20001C4F20101884205D012
:1017A00040F20041C4F20101884206D1816801F093
:1017B0000701062904BF00207047016841F00101BC
:1017C000016000207047000080B590F83C20012A9D
:1017D0004FF0020200F0C28080F83D20D0F800C037
:1017E0004FF67772DCF8083023EA0202CCF80820C2
:1017F0000B684F2B28DC1F2B44DD202B45D0302BD2
:1018000043D0402B40F0AC80D1F804E0C968DCF84C
:101810002030DCF8202022F00102CCF82020DCF877
:10182000182022F0F00242EA011123F00A0242EAF3
:101830000E02CCF81810CCF82020DCF8081041F08B
:10184000470121F0300180E06F2B27DDB3F5005F09
:1018500048D0B3F5805F7AD0702B40F08180D1E919
:1018600001E3C968DCF8082043EA0E0322F47F4252
:1018700043EA01211143CCF80810DCF8081041F0CC
:10188000770162E00BB1102B6AD1DCF8081021F06F
:101890007001194341F0070157E000BF502B35D0CC
:1018A000602B5DD1D1F804E0C968DCF82030DCF8A9
:1018B000202022F01002CCF82020DCF8182022F49E
:1018C000704242EA013123F0A00242EA0E12CCF843
:1018D0001810CCF82020DCF8081041F0670121F046
:1018E000100132E0D1E901E3C968DCF8082043EADD
:1018F0000E0322F47F4243EA01211143CCF8081081
:10190000DCF8081041F480411FE000BFD1F804E08A
:10191000C968DCF82030DCF8202022F00102CCF885
:101920002020DCF8182022F0F00242EA011123F016
:101930000A0242EA0E02CCF81810CCF82020DCF89B
:10194000081041F0570121F02001CCF808100022C6
:10195000012180F83D10002180F83C10104680BD28
:101960000122F5E77047000070B504460068C568BD
:101970000669B10716D515F0020113D06FF0020108
:101980000161012121778069800703D02046FFF79C
:10199000E9FF05E0204600F08FF8204600F0EAF964
:1019A00000202077700719D515F0040016D02068A4
:1019B0006FF00401016102212177806910F4407FFA
:1019C00004D02046FFF7CEFF06E000BF204600F01F
:1019D00073F8204600F0CEF900202077300717D5A5
:1019E00015F0080014D020686FF00801016104218F
:1019F0002177C069800703D02046FFF7B3FF05E0D9
:101A0000204600F059F8204600F0B4F90020207775
:101A1000F00619D515F0100016D020686FF01001EF
:101A2000016108212177C06910F4407F04D020466D
:101A3000FFF798FF06E000BF204600F03DF8204683
:101A400000F098F900202077F00718BF15F001008A
:101A500002D1300609D412E020686FF00101016163
:101A6000204600F013FA300609D515F0800006D0A4
:101A700020686FF0800101612046FFF76FFD70065E
:101A800009D515F0400006D020686FF040010161D3
:101A9000204600F005FAB00658BF70BD15F02000D2
:101AA00008D021686FF0200220460A61BDE870402E
:101AB000FFF756BD70BD0000704700002DE9F043F0
:101AC00090F83C30012B04BF0220BDE8F0834FEAC0
:101AD000B202032A00F2FC80DFE802F0023E7EBE82
:101AE000036840F200471C6A1A6A24F0020422F0DC
:101AF00001021A621A46D3F804E052F818CF8E6831
:101B000043F48065C4F20107BD4244EA060405D1EE
:101B1000CE6824F00C0426F0040634430E68BD425F
:101B200007D1D1E905572EF4407E45EA0E0545EA76
:101B3000070E2CF073073743C3F804E09F614F682A
:101B400009695F631C629F6947F008079F619F698D
:101B500027F004079F61B1E0036840F200481C6A67
:101B60001A6A24F0200422F010021A621A46D3F8EE
:101B700004C052F818EF8F6843F48065C4F201087E
:101B8000454544EA071407D1CF686FF0400624F0BA
:101B9000C00406EA07163443D1F80090454506D143
:101BA000D1E905562CF440672E4347EA860C2EF403
:101BB000E64747EA0927C3F804C09F614F680969EF
:101BC0009F631C629F6947F400679F619F6927F4C8
:101BD00080679F6171E000BF036840F200481C6AA3
:101BE0001A6A24F4007422F480721A621A46D3F836
:101BF00004C052F81CEF8F6843F48065C4F20108FA
:101C0000454544EA072408D1CF6840F2FF463F0229
:101C100024F4406427EA06063443D1F80090454591
:101C200006D1D1E905562CF440572E4347EA061C4D
:101C30002EF0730747EA0907C3F804C0DF614F6855
:101C40000969DF631C62DF6947F00807DF61DF694C
:101C500027F00407DF6131E0036840F20045D3F864
:101C600020C01A6A43F4806722F480521A621A462E
:101C70005C6852F81CEFD1F800808E68C4F2010550
:101C8000AF4204D14D6924F4804444EA85142CF415
:101C9000005747EA06372EF4E64646EA08265C6017
:101CA000DE614E6809691E641F62DF6947F40067E0
:101CB000DF61DF6927F48067DF6109021368194378
:101CC00011600021002280F83C200846BDE8F08326
:101CD0000121002280F83C200846BDE8F083000086
:101CE000002804BF0120704710B5044690F83D005D
:101CF00028B9002084F83C00204600F01FF802209C
:101D000084F83D002068211D01F03AFB012084F891
:101D1000460084F83E0084F83F0084F8400084F8D0
:101D2000410084F8420084F8430084F8440084F8B9
:101D3000450084F83D00002010BD000081B000681F
:101D400040F20041C4F20101884201D001B0704765
:101D50000020009043F64400C4F20200016841F004
:101D600002010160006800F002000090009801B0DC
:101D7000704700007047000041B1082910D00429C5
:101D800014BF00F1410200F13F020BE090F83E2049
:101D9000012A1CBF01207047022280F83E2013E078
:101DA00000F140021278012A1CBF01207047022274
:101DB000082907D0042914BF80F8412080F83F206B
:101DC00002E000BF80F84020006801F01F010122FE
:101DD000036A02FA01F123EA01020262026A114374
:101DE00041F2FF72C4F20002904201620CDC40F248
:101DF000FF71C4F20001884214DCB0F1804F37D08B
:101E000040F2004116E000BF40F2FF31C4F2010190
:101E1000884215DC41F60001C4F20001884227D057
:101E2000002115E040F60001C4F2000188421FD0F5
:101E300040F60041C4F20001884219D01FE000BF03
:101E400044F20001C4F20101884211D040F2004185
:101E5000C4F20101884212D1416C40F2004340F4C7
:101E60008062C4F2010341F400419A42416406D108
:101E7000816801F00701062904BF0020704701684E
:101E800041F001010160002070470000006844F249
:101E90000001C4F20101884218BF7047FEF780BFFD
:101EA000704700007047000010B5044600684169A3
:101EB00094F84120212A56D111F0800153D000BF5F
:101EC000206850E8050F216820F0800041E80502F5
:101ED000DAB1206850E8050F216820F0800041E861
:101EE000050292B1206850E8050F216820F08000BB
:101EF00041E805024AB1206850E8050F216820F04A
:101F0000800041E80502002ADAD1A06B002818BF42
:101F1000FEF72AFC206850E8030F216820F0C0007B
:101F200041E80302DAB1206850E8030F216820F08D
:101F3000C00041E8030292B1206850E8030F216815
:101F400020F0C00041E803024AB1206850E8030FC6
:101F5000216820F0C00041E80302002ADAD12020E5
:101F600084F841002068406994F84210222940F02A
:101F7000A78010F0400000F0A38000BF206850E868
:101F8000050F216820F0400041E80502DAB1206821
:101F900050E8050F216820F0400041E8050292B1A9
:101FA000206850E8050F216820F0400041E8050254
:101FB0004AB1206850E8050F216820F0400041E850
:101FC0000502002ADAD1E06B002818BFFEF7CCFB2F
:101FD000206850E8030F216820F4907041E8030264
:101FE000BAB3206850E8030F216820F4907041E8EC
:101FF000030272B3206850E8030F216820F4907048
:1020000041E803022AB3206850E8030F216820F456
:10201000907041E80302002ADAD11AE0206850E803
:10202000050F216820F0010041E80502DAB12068BF
:1020300050E8050F216820F0010041E8050292B147
:10204000206850E8050F216820F0010041E80502F2
:102050004AB1206850E8050F216820F0010041E8EE
:102060000502002ADAD1206B012824D1206850E82B
:10207000030F216820F0100041E80302DAB1206864
:1020800050E8030F216820F0100041E8030292B1EC
:10209000206850E8030F216820F0100041E8030297
:1020A0004AB1206850E8030F216820F0100041E891
:1020B0000302002ADAD1202084F8420000202063A5
:1020C000002010BD70470000B0B582B00446006823
:1020D0000168C368426901F02F05202D03F0200537
:1020E00006D12DB1204602B0BDE8B04001F06EBB74
:1020F0005FEA017C1EBF02F0010E03F4907212EB46
:102100000E0253D1226B012A05D111F0100218BF23
:1021100013F0100236D10A0622D513F080021FD028
:1021200094F8411021293FD1A168B1F5805F03D116
:102130002169002900F07282216A4A1C2262097812
:102140004160E18C01390A04E1842DD1C16821F09C
:102150008001C160C16841F04001C16002B0B0BD02
:10216000490621D513F040011ED0C16821F040017D
:10217000C1602021204684F8411002B0BDE8B04083
:1021800000F086BC00210191016801914168019134
:1021900001994069400613D4A08DE18DE28D002A9B
:1021A00018BF884240F0BC8102B0B0BDCA0718BF5A
:1021B00013F4807240F0B8804A0700F1BB80C0E0A1
:1021C000E06B016849688AB2002AEDD0A38D9A427B
:1021D000EAD2E185C069B0F5807F00F09C8020687C
:1021E00050E8030F216820F4807041E80302DAB15F
:1021F000206850E8030F216820F4807041E8030252
:1022000092B1206850E8030F216820F4807041E803
:1022100003024AB1206850E8030F216820F480705F
:1022200041E80302002ADAD1206850E8050F21684E
:1022300020F0010041E80502DAB1206850E8050FFE
:10224000216820F0010041E8050292B1206850E8C1
:10225000050F216820F0010041E805024AB120681D
:1022600050E8050F216820F0010041E80502002A2E
:10227000DAD1206850E8050F216820F0400041E8DD
:102280000502DAB1206850E8050F216820F040000F
:1022900041E8050292B1206850E8050F216820F05E
:1022A000400041E805024AB1206850E8050F216866
:1022B00020F0400041E80502002ADAD1202084F80D
:1022C000420000202063206850E8030F216820F0BE
:1022D000100041E80302DAB1206850E8030F2168DA
:1022E00020F0100041E8030292B1206850E8030F8B
:1022F000216820F0100041E803024AB1206850E84C
:10230000030F216820F0100041E80302002ADAD10F
:10231000E06BFEF729FA02206063A08DE18D401A80
:1023200081B2204675E100BF626C42F00102626436
:102330004A0706D5BEF1000F03D0626C42F00202DC
:1023400062648A0706D5BEF1000F03D0626C42F0CA
:1023500004026264BCF1000F09D545EA0E02B2FA2C
:1023600082F2520903D1626C42F008026264626C2C
:10237000002A3FF419AF11F0200118BF002D03D03F
:10238000204601F023FA20684069616C00F04000AB
:1023900001F00801401800F0B58000BF206850E847
:1023A000030F216820F4907041E80302BAB320685B
:1023B00050E8030F216820F4907041E8030272B3E3
:1023C000206850E8030F216820F4907041E8030270
:1023D0002AB3206850E8030F216820F4907041E888
:1023E0000302002ADAD11AE0206850E8050F2168BC
:1023F00020F0010041E80502DAB1206850E8050F3D
:10240000216820F0010041E8050292B1206850E8FF
:10241000050F216820F0010041E805024AB120685B
:1024200050E8050F216820F0010041E80502002A6C
:10243000DAD1206B012824D1206850E8030F2168ED
:1024400020F0100041E80302DAB1206850E8030FE1
:10245000216820F0100041E8030292B1206850E8A2
:10246000030F216820F0100041E803024AB1206800
:1024700050E8030F216820F0100041E80302002A11
:10248000DAD1202084F842000020206320684069CF
:1024900040063FD5206850E8050F216820F0400035
:1024A00041E80502DAB1206850E8050F216820F004
:1024B000400041E8050292B1206850E8050F21680C
:1024C00020F0400041E805024AB1206850E8050FBD
:1024D000216820F0400041E80502002ADAD1E06BD3
:1024E000C0B143F2CD41C0F600010165FEF784F9A9
:1024F00000283FF459AEE06B016D02B0BDE8B0407A
:10250000084700BF2046FFF7DDFD0020606402B0F1
:10251000B0BD00BF204602B0BDE8B040FFF7D2BD5D
:10252000401A216851E8031F226821F4907142E8A3
:102530000313DBB1216851E8031F226821F4907175
:1025400042E8031393B1216851E8031F226821F484
:10255000907142E803134BB1216851E8031F2268D0
:1025600021F4907142E80313002BDAD1216851E87D
:10257000051F226821F0010142E80513DBB1216843
:1025800051E8051F226821F0010142E8051393B1CB
:10259000216851E8051F226821F0010142E8051376
:1025A0004BB1216851E8051F226821F0010142E882
:1025B0000513002BDAD1202184F842100021216379
:1025C000216851E8031F226821F0100142E803133B
:1025D000DBB1216851E8031F226821F0100142E8B5
:1025E000031393B1216851E8031F226821F0100101
:1025F00042E803134BB1216851E8031F226821F020
:10260000100142E80313002BDAD1022281B22046E6
:10261000626302B0BDE8B040FFF744BC216A31F804
:10262000022B6FF35F22426021628AE5002804BF1B
:102630000120704710B5044690F8410028B90020E9
:1026400084F84000204600F021F8242084F841005E
:102650002068C16821F40051C160204601F036F9BC
:102660002068016921F490410161416921F02A014A
:102670004161C16841F40051C160002020216064C3
:1026800084F8411084F84210606310BD70B586B0C4
:102690000446006844F20041C4F20001002688426A
:1026A000CDE90466CDE90266019631D041F2000120
:1026B000C4F20101884279D1002043F63001009034
:1026C000C4F202014A6942F010024A614A6902F00A
:1026D00010020092009A00900A6842F001020A601B
:1026E000096801F00101009100994FF4C061019166
:1026F0000221CDE90210032004900720059000205C
:10270000C4F2020001A9FEF76BFA252446E000BFDF
:1027100043F630000096C4F20200016941F4003132
:102720000161016901F4003100910099009601688E
:1027300041F001010160006801A900F00100009072
:1027400000980C2001900220CDE90206032004909D
:10275000072005900020C4F20200FEF741FA40F283
:10276000F40546F28800C2F20005C4F202004FF000
:1027700000614FF4806285E843002846C5E90362A2
:10278000C5E90566C5E907666E62FEF727F9002808
:1027900018BFFDF7E5FFE563AC632624204605215D
:1027A0000022FEF7B7FB2046FEF7A0FB06B070BD87
:1027B00070B582B0044690F8420020280AD1134632
:1027C0000A4600294FF0010018BF002B06D102B0C5
:1027D00070BD00BF022002B070BD00BF00262220E5
:1027E0002663A262A385666484F842002168E06BD8
:1027F00043F2556C43F2B57E43F2D945C0F6000C66
:10280000C0F6000EC0F600050431C0E90FCEC0E9E5
:102810001356FEF795F9019620680168019140680A
:1028200001900198206928B3206850E8030F2168BF
:1028300040F4807041E80302E2B1206850E8030FE1
:10284000216840F4807041E803029AB1206850E8A2
:10285000030F216840F4807041E8030252B1206800
:1028600050E8030F216840F4807041E80302002A19
:10287000DAD100BF206850E8050F216840F0010060
:1028800041E80502E2B1206850E8050F216840F0F8
:10289000010041E805029AB1206850E8050F21685F
:1028A00040F0010041E8050252B1206850E8050FF0
:1028B000216840F0010041E80502002ADAD100BF9A
:1028C000206850E8050F216840F0400041E805020B
:1028D000DAB1206850E8050F216840F0400041E877
:1028E000050292B1206850E8050F216840F04000D1
:1028F00041E805024AB1206850E8050F216840F020
:10290000400041E80502002ADAD1002002B070BD83
:1029100070470000704700002DE9F041044690F830
:10292000410020281CBF0220BDE8F0810D4600298F
:102930004FF0010000F0AA801646002A08BFBDE84B
:10294000F081002060642120984684F84100FEF761
:1029500021FAA684E684A1680646B1F5805F02D11B
:102960002069002862D02F460025E08C002861D025
:1029700018F1010018D0B8F1000F37D1216808E034
:1029800017F8010B4860E08C0138E084E08C0028E7
:1029900051D00868000673D5002FF1D135F8020B2D
:1029A00000276FF35F20EDE7216802E0086800066A
:1029B00009D40868000606D4086800065CBF0868E9
:1029C0005FEA0060F2D51FB117F8010B05E000BF08
:1029D00035F8020B00276FF35F204860E08C013868
:1029E000E084E08C0028E4D125E000BF216800BF2E
:1029F0000868000608D4FEF7CDF9801B404541D891
:102A00002168C868F4E700BF17B117F8010B04E0AC
:102A100035F8020B00276FF35F204860E08C013827
:102A2000E084E08C0028E3D105E000BF0027E08CC3
:102A300000289DD12168086840061FD4B8F1000F16
:102A40001ED018F101000FD10868400616D408689E
:102A5000400613D40868400610D4086840064FF0BA
:102A60000000F1D50FE000BFFEF794F9801B404550
:102A700008D82068C16800684006F5D5002002E04B
:102A8000FEF788F90320202184F84110BDE8F08189
:102A900070470000FEE7000080B582B00020019082
:102AA00043F63000C4F202000168002241F4001134
:102AB00001600068052100F40010019001981020C9
:102AC000FEF728FA102002B0BDE88040FEF70EBAEB
:102AD00070B59CB080200C21002201F065FF40F20F
:102AE0001806C2F200062449306023A0051D159186
:102AF0003ECD80690DF1580C8CE83E001B9015A866
:102B0000002101F047F82349706022A0051D0E91B5
:102B10002ECDD0E905400DF13C0C8CE82E00CDE91E
:102B200013400EA8002101F035F82149B06020A023
:102B3000051D07912ECDD0E905400DF1200C8CE844
:102B40002E00CDE90C4007A8002101F023F81F4911
:102B5000F0601EA0051D00912ECDD0E905400DF1BD
:102B6000040C8CE82E00CDE905406846002101F0F8
:102B700011F830611CB070BD025B0008A530000880
:102B800002000000000000008000000000000000C3
:102B900000000000FB5A000851320008030000004A
:102BA00000000000800000000000000000000000A5
:102BB000F25A000859320008FFFF00000000000030
:102BC0008000000000000000000000000E5B000814
:102BD00061320008030000000000000080000000D7
:102BE00000000000000000002DE9F04387B000273E
:102BF00043F6300006970197C4F20200016840F6E0
:102C0000000441F0040101600168C4F2020401F013
:102C100004010191019901970168002241F08001AE
:102C20000160016840F2411601F0800101910199B3
:102C30000197016841F001010160016801F00101A3
:102C4000019101990197016841F01001016000684C
:102C500040F2411100F01000019001982046FEF76B
:102C600093F804F5006528464FF4405100224FF4D4
:102C70004058FEF789F8029602AE4FF0010920464F
:102C80003146CDE903970597FDF7AAFF284631465F
:102C9000CDE90289CDE90477FDF7A2FF07B0BDE8D1
:102CA000F0830000B0B59CB0002540F25410C4F28F
:102CB00001050021C2F200005322C7231691CDE97D
:102CC00014111191CDE90F11CDE90D11CDE90B11C1
:102CD000CDE90911CDE90711CDE90511CDE90311C0
:102CE000CDE90111C0E90052C0E90213C0E90411A5
:102CF0008161FEF7B9FC002818BFFDF731FD4FF4E4
:102D00008050139040F25410C2F2000013A9FEF755
:102D10005BFD002818BFFDF723FD40F25410C2F2FE
:102D20000000FEF7DDFF002818BFFDF719FD40F297
:102D300054100024C2F2000010A9CDE91044FEF79F
:102D400037FC002818BFFDF70BFD6020CDE9090412
:102D500040F25410C2F2000009A90422CDE90B444C
:102D6000CDE90D440F94FEF7A9FE002818BFFDF72A
:102D7000F7FC40F25410C2F2000009A90C22FEF741
:102D80009DFE002818BFFDF7EBFC40F25414002014
:102D90004FF40051C2F200040590CDE90300CDE9E3
:102DA00001000691089001A92046FEF7DBFB0028F0
:102DB00018BFFDF7D5FC206840F20041C4F20101C4
:102DC000884217D0A84233D10020179043F6300034
:102DD000C4F2020001684FF4904241F0100101601A
:102DE0000068012100F010001790179805F5883051
:102DF00014E000BF0020179043F63000C4F2020038
:102E000001684FF4207241F0040101600068032161
:102E100000F004001790179805F5843017920222ED
:102E2000189200221B9117A9CDE91922FDF7D8FEAF
:102E30001CB0B0BDB0B598B040F2004540F29C1057
:102E4000C4F201050021C2F200005322C7231191F0
:102E5000CDE90F11CDE90D11CDE90B11CDE9091126
:102E6000CDE90711CDE90511CDE90311CDE9011136
:102E7000C0E90052C0E90213C0E904118161FEF704
:102E80002FFF002818BFFDF76BFC40F29C10C2F228
:102E9000000010A9FEF78CFB002818BFFDF760FCAE
:102EA000602009900020CDE90A00CDE90C00CDE9B1
:102EB0000E0040F29C10C2F2000009A90422FEF7A5
:102EC000FDFD002818BFFDF74BFC40F29C10C2F23C
:102ED000000009A90C22FEF7F1FD002818BFFDF73C
:102EE0003FFC40F29C1400204FF40051C2F2000459
:102EF0000590CDE90300CDE901000691089001A9F4
:102F00002046FEF72FFB002818BFFDF729FC20689C
:102F1000A84219D00021C4F20101884232D1002018
:102F2000139043F63000C4F2020001684FF490425F
:102F300041F0100101600068012100F010001390C1
:102F4000139805F5863013E00020139043F6300007
:102F5000C4F2020001684FF4207241F004010160E4
:102F60000068032100F004001390139805F58230E7
:102F70001392022214920022179113A9CDE915226F
:102F8000FDF72EFE18B0B0BD80B540F22C2041F206
:102F90000001C2F20000C4F2010100234FF00C0C4A
:102FA0004FF4E13280E80E00C0E90333C0E905C305
:102FB000C361FFF73BFB002808BF80BDBDE8804030
:102FC000FDF7CEBB80B540F2742044F20041C2F25E
:102FD0000000C4F2000100234FF00C0C4FF4E1326A
:102FE00080E80E00C0E90333C0E905C3C361FFF701
:102FF0001DFB002808BF80BDBDE88040FDF7B0BBC9
:10300000FEE70000FEE700000000000000000000F6
:10301000EFF30980BFF36F8F154B1A681EF0100F86
:1030200008BF20ED108A20E9F04F10602DE909005B
:103030004FF0500080F31188BFF34F8FBFF36F8FB5
:1030400001F0B8FB4FF0000080F31188BDE80900E3
:1030500019680868B0E8F04F1EF0100F08BFB0EC18
:10306000108A80F30988BFF36F8F704700BF00BFDD
:103070002C00002000000000000000000000000004
:10308000074B19680868B0E8F04F80F30988BFF370
:103090006F8F4FF0000080F31188704700BF00BFB2
:1030A0002C0000208AB09FED588A40F218059FED51
:1030B00057BA9FED57CA9FED57DA9FED57EAC2F214
:1030C000000507ACB0EE089AF3EE049A0FF24C1824
:1030D000B0EE48FAF0EE488A52E000BF30EE421AF5
:1030E000B4EE4B1A30EE020AF1EE10FAC8BFB0EEA1
:1030F0004B1AB4EE4C1AF1EE10FAB4EE4B0AB8BF0C
:10310000B0EE4C1AF1EE10FAC8BFB0EE4B0AB4EEB6
:103110004C0A28EE8D2A21EE0E1AF1EE10FAB8BFF5
:10312000B0EE4C0A71EE028A2FEE0D1A20EE0E0A56
:1031300030EE01FABDEEE80A10EE100A01F06EF86A
:10314000BDEECF0A10EE100A01F0A8F818EE900AB2
:10315000FDF779F8064641EC1A0B1FEE100A0F46F0
:10316000FDF771F841EC100B404632463B468DEDC1
:10317000000B8DED02AB8DED040B02F031F800BFBA
:10318000286821464FF0FF3201F0FAFC0128F7D100
:103190009DED072A9DED081AB0EEC20AB4EE490A69
:1031A000F1EE10FAB0EE480A11DD82EE290A20EEA7
:1031B0000B0AB4EE4B0AF1EE10FAC8BFB0EE4B0AA0
:1031C000B4EE4C0AF1EE10FAB8BFB0EE4C0AB0EE15
:1031D000C12AB4EE492AF1EE10FAB0EE482A7FF780
:1031E0007DAF81EE291A21EE0B2AB4EE4B2AF1EEC7
:1031F00010FAC8BFB0EE4B2AB4EE4C2AF1EE10FA2A
:10320000B8BFB0EE4C2A69E7000000000000C842D9
:103210000000C8C29A99593F9A99193E5461726741
:103220006574204C3A20252E31662C20523A2025F8
:103230002E3166207C204C617374204C3A20252E60
:1032400031662C20523A20252E31660D0A000000EE
:10325000012000F091FCFBE7012000F08DFCFBE772
:10326000012000F089FCFBE780B54FF0500080F3AF
:103270001188BFF36F8FBFF34F8F01F021FE30B184
:103280004EF60450CEF200004FF080510160002055
:1032900080F3118880BD0000B0B592B0002443F6E1
:1032A0004000CDE90A44CDE908440594CDE9034442
:1032B000CDE901440094C4F202000168022541F006
:1032C00080510160006800F080500090009847F243
:1032D00000000094C4F20000016841F480410160E4
:1032E0000068A82100F4804000900098012006901A
:1032F0004FF4803007904FF480000D9004200E9022
:10330000119006A80C95CDE90F15FDF76DFF18B1CA
:1033100072B600BFFEE700BF0F20CDE901054FF4F4
:10332000A05004904FF48050059001A8052103940B
:10333000FDF72CFE10B172B6FEE700BF12B0B0BDB3
:103340004EF68850CEF20000016841F47001016031
:103350007047000080B540F25410C2F20000FEF742
:1033600003FB40F2E410C2F20000BDE88040FEF72B
:10337000FBBA000040F25410C2F20000FEF7F4BAAB
:1033800010B540F6FF3E0368C4F2000E40F2004C58
:103390007045C4F2010C27DCB0F1804F31D040F20F
:1033A0000042C4F2000290422BD040F60002C4F268
:1033B0000002904225D041F6FF72C4F20002904212
:1033C00029DC70453CDCB0F1804F5FD040F2004218
:1033D000C4F20002904259D040F60002C4F200024A
:1033E000904253D056E000BF40F60042C4F20002C3
:1033F000904206D0604504D00022C4F201029042FF
:10340000D9D14A6823F07003134341F6FF72C4F226
:1034100000029042D5DD43F6FF72C4F201029042F1
:1034200022DC42F20002C4F2000290422ED00022BE
:10343000C4F20102904229D0604527D02AE000BFA3
:1034400040F60042C4F2000290421FD041F6000252
:10345000C4F20002904219D041F60042C4F20002C8
:10346000904213D016E000BF44F20002C4F2010201
:1034700090420BD044F60002C4F20102904205D003
:1034800044F20042C4F20102904203D1CA6823F41C
:103490004073134323F080024B69D1F800E08C683D
:1034A0001A430260C46240F48062C0F828E06245BA
:1034B00004BF09690163012141610169C90708BFAE
:1034C00010BD016921F00101016110BD806B002177
:1034D000C185C184FEF7F6BD806B01684A6990F82A
:1034E0004130212B2DD112F080022AD00021C1843D
:1034F000016851E8031F026821F0C00142E803138C
:10350000DBB1016851E8031F026821F0C00142E805
:10351000031393B1016851E8031F026821F0C00151
:1035200042E803134BB1016851E8031F026821F020
:10353000C00142E80313002BDAD1202180F84110AA
:103540000168496990F84220222A40F07D8011F0FC
:10355000400179D00021C185016851E8031F02684C
:1035600021F4907142E80313BBB3016851E8031FD3
:10357000026821F4907142E8031373B3016851E8C3
:10358000031F026821F4907142E803132BB3016812
:1035900051E8031F026821F4907142E80313002BE5
:1035A000DAD11AE0016851E8051F026821F0010133
:1035B00042E80513DBB1016851E8051F026821F0FC
:1035C000010142E8051393B1016851E8051F026843
:1035D00021F0010142E805134BB1016851E8051FD4
:1035E000026821F0010142E80513002BDAD1016BDA
:1035F000012924D1016851E8031F026821F010015C
:1036000042E80313DBB1016851E8031F026821F0AF
:10361000100142E8031393B1016851E8031F0268E7
:1036200021F0100142E803134BB1016851E8031F78
:10363000026821F0100142E80313002BDAD12021A7
:1036400080F8421000210163416C41F01001416497
:10365000FEF738BD0168806B0968C90500F19F80DD
:103660000021C185016851E8031F026821F48071BF
:1036700042E80313E3B1016851E8031F026821F433
:10368000807142E803139BB1016851E8031F02688F
:1036900021F4807142E8031353B1016851E8031F1C
:1036A000026821F4807142E80313002BDAD100BFD5
:1036B000016851E8051F026821F0010142E8051385
:1036C000BBB3016851E8051F026821F0010142E81F
:1036D000051373B3016851E8051F026821F0010169
:1036E00042E805132BB3016851E8051F026821F079
:1036F000010142E80513002BDAD11AE0016851E814
:10370000051F026821F0400142E80513DBB10168A2
:1037100051E8051F026821F0400142E8051393B10A
:10372000016851E8051F026821F0400142E80513D5
:103730004BB1016851E8051F026821F0400142E8E1
:103740000513002BDAD1202180F84210016B0129EA
:1037500025D100BF016851E8031F026821F0100164
:1037600042E80313DBB1016851E8031F026821F04E
:10377000100142E8031393B1016851E8031F026886
:1037800021F0100142E803134BB1016851E8031F17
:10379000026821F0100142E80313002BDAD1002166
:1037A0004163016B012918BFFFF7B2B8818DFEF7A5
:1037B00079BB0000806B01214163016B012918BFB7
:1037C000FFF7A8B8818D4908FEF76CBB81B090F86F
:1037D0004210222921D183680246B3F5805F09D1C6
:1037E00052F8281F52F8183C002B63D003685B681E
:1037F0000AE000BF52F8281F13B90369002BF5D067
:1038000003685B6803F07F030B701168013111607E
:10381000C18D01390A04C18502D001B0704700BFD3
:103820000168CA6822F02002CA60CA6822F4807265
:10383000CA604A6922F001024A61202180F84210E0
:1038400000214163026B012A3CD10163016851E808
:10385000031F026821F0100142E80313DBB1016885
:1038600051E8031F026821F0100142E8031393B1ED
:10387000016851E8031F026821F0100142E80313B8
:103880004BB1016851E8031F026821F0100142E8C2
:103890000313002BDAD101680A68D20606D500228C
:1038A00000920A680092496800910099818D01B0E8
:1038B000FEF7F8BA026852686FF35F2221F8022B14
:1038C0008162A5E701B0FFF723B8000010B50446F8
:1038D0000068D4E902C22369016921F4405111430F
:1038E0000161626943EA0C01E3691143C26819434B
:1038F00049F20C639A431143C1604169A26921F402
:10390000407141F20043114340F48062C4F201036C
:103910009A42416102D1FDF71DFC01E0FDF706FC72
:10392000E16963681922B1F5004FA0FB020123D1C0
:103930005A00DB0FFCF744FC48F21F51C5F2EB11B3
:10394000A0FB01235A094FF69C73C0F6FF7303F1E5
:10395000805302FB0300322303EBC000A0FB0101F4
:103960004FF4F87000EA111000EB0210C1F342119D
:1039700008442168886010BD9A009B0FFCF720FC6A
:1039800048F21F51C5F2EB11A0FB01235A094FF673
:103990009C73C0F6FF7302FB0300322303EB00109D
:1039A000A0FB0101F02000EA511000EB0210C1F36E
:1039B000431108442168886010BD000040F22C20AB
:1039C000C2F20000FEF780BB10B584B040F2742450
:1039D000C2F200042046FEF777FB20680168C906A2
:1039E00053D500210191016801914068019001982F
:1039F0002046FEF759FAE06B00684068C0F14000CD
:103A000080B20E2836D140F24830C2F20000017870
:103A1000AA292FD1417BEE292CD101684268836805
:103A200040F288348089C2F2000462602160A360A1
:103A3000A081D4F8010001ABD4F80510D4F8092016
:103A400007C340F21800C2F2000000210068009194
:103A500001A96A46002300F0E7FF009850B14EF636
:103A60000450CEF200004FF080510160BFF34F8F41
:103A7000BFF36F8F40F2742040F24831C2F2000071
:103A8000C2F200014022FEF793FE04B010BD000018
:103A9000FEE70000B0B540F60004C4F2020404F5ED
:103AA000006528464FF480510022FDF76DF9284645
:103AB0004FF400510022FDF767F920464FF4807162
:103AC0000022FDF761F9204640210022BDE8B04008
:103AD000FDF75AB980B582B0019040F22C20C2F2B5
:103AE000000001A901224FF6FF73FEF715FF0198B0
:103AF00002B080BDFDF762F9FFF7CEFBFFF774F867
:103B0000FEF7CAFFFFF740FAFFF7CCF8FFF792F98C
:103B1000FFF758FA40F25414C2F200042046042180
:103B2000FEF72AF920460C21FEF726F940F29C14F4
:103B3000C2F2000420460421FEF71EF920460C21A3
:103B4000FEF71AF9FFF7A6FF40F27424C2F2000450
:103B500040F24831C2F2000120464022FEF728FE22
:103B60002068C16841F01001C160FEF7B1FF00F0AC
:103B70000BF800BFFEE7000080B5002808BF012059
:103B800000F02CFD002080BD80B500F0A5FD0020D8
:103B900080BD0000B0B584B043698E4693B184699E
:103BA00084B10589D0E9001C026928B2843D18BFA0
:103BB000C51CCDE9005360467346029401F034F908
:103BC00004B0B0BD0589D0E90013028A28B2843D53
:103BD00018BFC51C03AC184673460095019401F04C
:103BE000F3F80399012818BF0021084604B0B0BDBE
:103BF000F0B581B040F22C04C2F200040E46676AB0
:103C000021680546081D00F07FFB18B1681C0CD028
:103C100016E000BF20680121C06A626801FA00F066
:103C200022EA00006060681C0AD14EB154F8500BC3
:103C3000011D204601B0BDE8F04000F0C7BB00BF49
:103C40002068ED19456007D3606B2168043101B02D
:103C5000BDE8F04000F088BB206B2168043100F023
:103C600083FB206A854238BF256201B0F0BD0000A9
:103C70002DE9F041044600F0C1FB40F22C06C2F2EF
:103C80000006306940F2BC25013030613068C2F274
:103C9000000548B17069002840D13068E16AC06A07
:103CA000884298BF346039E034603069012835D1EA
:103CB000284600F049FB05F1140000F045FB05F132
:103CC000280000F041FB05F13C0000F03DFB05F150
:103CD000500000F039FB05F1640000F035FB05F100
:103CE000780000F031FB40F2CC08C2F200084046F8
:103CF00000F02AFB08F11407384600F025FB06F116
:103D0000640000F021FB06F13C0000F01DFB06F111
:103D1000500000F019FBC6F8308077637068B16816
:103D200001220131B160E16A8A401043706001EB09
:103D3000810005EB8000211D00F048FB00F082FBB4
:103D4000706988B13068E16AC06A884228BFBDE8FE
:103D5000F0814EF60450CEF200004FF08051016029
:103D6000BFF34F8FBFF36F8FBDE8F08140F22C059A
:103D700040F2BC264EF60458C2F20005C2F200061C
:103D8000CEF200084FF0805703E000BF204600F05D
:103D900071FBE868D0B100F031FBA86CC468201D4D
:103DA00000F0B2FA286901382861E8680138E86053
:103DB00000F048FB94F851000228EAD00128E5D031
:103DC00070B9206B00F056FBE0E700BF30680228B6
:103DD000DFD3C8F80070BFF34F8FBFF36F8FD8E702
:103DE0004FF0500080F31188BFF36F8FBFF34F8FF8
:103DF000FEE700002DE9F047DDE909878246386BD0
:103E0000089C00EB820004389946002920F0070640
:103E100056D0087887F83400087800284BD04878C6
:103E200087F835004878002845D0887887F836002C
:103E3000887800283FD0C87887F83700C878D0B392
:103E4000087987F838000879A8B3487987F83900E5
:103E5000487980B3887987F83A00887958B3C87967
:103E600087F83B00C87930B3087A87F83C00087AB5
:103E700008B3487A87F83D00487AE0B1887A87F835
:103E80003E00887AB8B1C87A87F83F00C87A90B106
:103E9000087B87F84000087B68B1487B87F84100C1
:103EA000487B40B1887B87F84200887B00281CBF94
:103EB000C87B87F84300002087F8430003E000BF79
:103EC000002087F834000025381D062C28BF062462
:103ED000FC62C7E9114500F043FA07F1180000F051
:103EE0003FFA84F00700B861304651464A463F61C8
:103EF0007F62FD6487F8505000F07CF9B8F1000F44
:103F0000386018BFC8F80070BDE8F087084800683E
:103F1000006880F308884FF0000080F3148862B6D0
:103F200061B6BFF34F8FBFF36F8F00DF00BF00009C
:103F300008ED00E081B00020009040F21000C2F2D5
:103F4000000000684FF0500181F31188BFF36F8FBC
:103F5000BFF34F8F013007D0FEE700BF009830B9A4
:103F6000009820B9009810B900980028F6D001B048
:103F700070470000F0B581B0044600F03FFA94F9B4
:103F80004560012E0FDB04F1240500BF286850B105
:103F9000284601F075F8002818BF00F079FBF0B250
:103FA000013E0128F2D8FF2684F8456000F04AFA65
:103FB00000F024FA94F94470012F0EDB04F110058F
:103FC000286850B1284601F05BF8002818BF00F0BF
:103FD0005FFBF8B2013F0128F2D884F8446001B0D9
:103FE000BDE8F04000F02EBA70B5044600F0DAFBF0
:103FF00040F2A40CC2F2000CDCF8040050B19CF8B2
:104000000000002818BF4FF000404FF0000574BBBF
:104010008DE000BF40F2A830C2F20000C21D22F0C5
:10402000070210F00701A0EB020318BF10460022A0
:104030004FF47055CCE90602002918BF03F57055FE
:10404000411921F00701A1F10803CCF8043041E93E
:104050000222191AC0E9003101208CF800004FF04B
:104060000040CCE90211002C4FF000055FD0204049
:104070005DD124F0070000F11002600708BF04F1D1
:104080000802002A4FF0000551D0DCF808008242F7
:104090004DD8604650F818EFDEF8045095422CD207
:1040A000DEF80010C1B174464D68954218D20B6815
:1040B000B3B15D68954217D21868A8B145689542BA
:1040C00016D20468A4B16568954215D22168A64647
:1040D0000029E9D111E000BF0CF118000DE000BF8C
:1040E0008E46204609E000BF9E46084605E000BF18
:1040F0008646184601E000BFA646DCF804108E454F
:1041000014D00168DEF80040AB1A112B04604DD3C7
:104110000EEB0205680719D04FF0500080F31188AC
:10412000BFF36F8FBFF34F8FFEE700BF002500F096
:10413000E1FF68075BD04FF0500080F31188BFF3B8
:104140006F8FBFF34F8F00BFFEE700BF0CF1180069
:104150006B60CEF8042000BF0368AB420AD2186837
:10416000A8420BD20368AB4204D218681A46A84290
:10417000F2D304E00246184601E000BF1A46536835
:104180006C68D618AE4202D11C44154654602B19F7
:10419000834207D1DCF80430984203D0D0E9000311
:1041A00023446B60AA42286018BF156001F108051E
:1041B000DEF80400DCE90212091A9142CCF808107A
:1041C00038BFCCF80C109CF80010002918BF40F044
:1041D0000040CEF80400DCF8100000210130CEF8D9
:1041E0000010CCF8100000F085FF6807A3D1284626
:1041F00070BD0000034643F63570C0F600004FF076
:10420000807C21F0010103E903106FF0020043F804
:10421000240CA3F1440043F8202C704770B541F200
:104220000005C4F202050446012828464FF48051D7
:1042300012DB0122FCF7A8FD28464FF400510022B2
:104240000026FCF7A1FD40F25410C2F20000006805
:104250008463066470BD00BF00220026FCF794FD55
:1042600028464FF40051B4F1FF3F0BDD0022FCF76C
:104270008BFD40F25410C2F20000006886630664B1
:1042800070BD00BF0122FCF77FFD40F25410C2F266
:104290000000006886636642066470BD70B540F633
:1042A0000005C4F202050446012828464FF4807137
:1042B0000ADB00220026FCF767FD28464021012288
:1042C000FCF762FD18E000BFB4F1FF3F0ADD0022F9
:1042D0000026FCF759FD284640210022FCF754FD3A
:1042E000002409E00122FCF74FFD2846402100226E
:1042F000FCF74AFD6642002440F29C10C2F2000026
:1043000000680664846370BDD0E9013201699A6077
:10431000D1F804C082688445536008BF4A60002217
:1043200002610868013808600868704744F2AC13FD
:10433000C2F20003036043F6AC70C2F200000860F2
:1043400080201060704700004FF0FF31024642F8B5
:10435000081F00214260C0E903220160704700008D
:10436000002101617047000010B5D1F800E01EF196
:10437000010213D000F1080462681368734511D874
:1043800053681C68744511D85A68146874450FD86E
:1043900054682368A4467345EED90BE00269D2F84D
:1043A00004C007E09446224604E000BF9C4601E0BA
:1043B00094461A46C1F804C0CCF808108A605160CF
:1043C000086101680131016010BD0000D0F800C033
:1043D000436808619A684B608A609A689960516086
:1043E0000CF1010101607047DFF80C00016841F435
:1043F000700101607047000088ED00E04FF0500050
:1044000080F31188BFF36F8FBFF34F8F40F210001E
:10441000C2F2000001684A1C026009B1704700BF87
:104420004EF60450CEF200000068000608BF704748
:104430004FF0500080F31188BFF36F8FBFF34F8FA1
:10444000FEE7000040F21000C2F20000016839B13E
:104450000139016018BF7047002080F31188704750
:104460004FF0500080F31188BFF36F8FBFF34F8F71
:10447000FEE7000070B5002808BF70BD40F2A4053B
:10448000C2F200050446287854F8041C002818BF1E
:104490004FF0004008420DD0A4F1080632689AB1EE
:1044A0004FF0500080F31188BFF36F8FBFF34F8F31
:1044B000FEE700BF4FF0500080F31188BFF36F8F0D
:1044C000BFF34F8FFEE700BF21EA000044F8040C61
:1044D00000F068F954F8041CA8680844A86005F1C5
:1044E000180000BF0368B3420AD21868B04225D250
:1044F0000368B34204D218681A46B042F2D301E00E
:10450000024618465368D418B44202D119441646DC
:1045100051607318834206D16B68984203D0D0E98A
:10452000000319447160B242306018BF16606869B8
:1045300001306861BDE8704000F0DCBD1A46536888
:10454000D418B442E5D1E1E74EF21000CEF20000FB
:1045500000210160816040F20C01C2F20001096893
:1045600044F6D352C1F26202A1FB02124FF0FF31B6
:1045700001EB9211416007210160704740F2C400D5
:10458000EFF305811029C2F2000011D34EF2F03290
:10459000CEF20002895C0278914209D24FF05000BD
:1045A00080F31188BFF36F8FBFF34F8FFEE700BF1B
:1045B0004EF60C51CEF200010968406801F4E0614A
:1045C000814298BF70474FF0500080F31188BFF3CD
:1045D0006F8FBFF34F8F00BFFEE7000070B500285C
:1045E0003FD040F22C05C2F200050446A86948B14C
:1045F0004FF0500080F31188BFF36F8FBFF34F8FE0
:10460000FEE700BFA8690130A8616E6A286804301F
:10461000FFF77AFE50B12868A419446013D3686B81
:1046200029680431FFF7A0FE16E000BF28680121C9
:10463000C06A6A6801FA00F022EA0000686028682F
:10464000A4194460EBD2286B29680431FFF78CFE73
:10465000286A844238BF2C6200F04CFD002818BF45
:1046600070BD4EF60450CEF200004FF08051016054
:10467000BFF34F8FBFF36F8F70BD000040F22C016E
:10468000C2F200018A6B0260496A41607047000013
:1046900040F22C00C2F2000001218162704700004C
:1046A00010B578B10C4640F22C01C2F20001096845
:1046B0001831FFF759FE20460121BDE81040FFF7F1
:1046C00097BA00BF4FF0500080F31188BFF36F8F8F
:1046D000BFF34F8FFEE70000B0B588B00020CDE9F2
:1046E000050006A805A904AAFFF720FE0598B8B39F
:1046F000069C002C3ED05421049A07910799542916
:1047000042D107992063022084F8510007A80025B0
:10471000CDE9005043F66D50C0F600001FA1002304
:104720000294FFF767FB2046FFF7A2FA079940F2D1
:104730002C00C2F20000C16179B14FF0500181F349
:104740001188BFF36F8FBFF34F8F4FF0FF310162BE
:1047500001214161456200F065F808B0B0BD00BFBD
:104760004FF0500080F31188BFF36F8FBFF34F8F6E
:10477000FEE700BF4FF0500080F31188BFF36F8F4A
:10478000BFF34F8FFEE700BF4FF0500080F311885A
:10479000BFF36F8FBFF34F8FFEE700BF49444C4517
:1047A0000000000040F22C00C2F2000081690131DB
:1047B0008161704740F22C00C2F20000816900293B
:1047C0001EBF012181627047002181624168B1FAF8
:1047D00081F1C9B2C1F11F0140F2BC2201EB81019C
:1047E000C2F2000252F8213063B102EB810252F8AA
:1047F000041F4968131D994211600DD0C9680160FA
:10480000704700BF4FF0500080F31188BFF36F8FE7
:10481000BFF34F8FFEE700BF49681160C9680160B0
:1048200070470000B0B584B04EF2004CCEF2000CE0
:104830004CF27021C4F20F11DCF800294B1C9A4293
:104840000AD14FF0500080F31188BFF36F8FBFF390
:104850004F8F00BFFEE700BFDCF800298A4209D174
:104860004FF0500080F31188BFF36F8FBFF34F8F6D
:10487000FEE700BF9CF800100291FF218CF80010A9
:104880009CF800108DF807109DF8071001F05002F9
:1048900040F2C401C2F200010A7007224A609DF989
:1048A0000720B2F1FF3F69DC032200BFD31C4B603D
:1048B0009DF8070040008DF807009DF90700B0F152
:1048C000FF3F23DC931C4B609DF8070040008DF8F0
:1048D00007009DF90700B0F1FF3F17DC531C4B6048
:1048E0009DF8070040008DF807009DF90700B0F122
:1048F000FF3F0BDC4A609DF80700043A40008DF84A
:1049000007009DF907000028D0D4131D032B35D1D3
:104910004FF44070486002988CF80000DCF82009E1
:1049200040F47000CCF82009DCF8200940F0704019
:10493000CCF82009FFF708FE40F21004C2F2000490
:1049400000252560FFF750FD4EF63470CEF20000D2
:10495000016841F040410160FFF7D8FAFFF72AFFF4
:10496000039520684FF0500181F31188BFF36F8FDA
:10497000BFF34F8F013011D0FEE700BF4FF0500062
:1049800080F31188BFF36F8FBFF34F8FFEE700BF37
:10499000039830B9039820B9039810B903980028F8
:1049A000F6D0002004B0B0BDF0B581B090B305469C
:1049B000484348300E46FFF717FB044630B3002744
:1049C000204684F84670002E18BF48302060C4E9A5
:1049D0000F56FFF713FD2068D4E90F12A76302FBFF
:1049E0000103013901FB0201C4E90103FF20E16079
:1049F00084F8440084F8450004F11000FFF7A4FC9B
:104A000004F12400FFF7A0FCFFF71CFD204601B0D5
:104A1000F0BD00BF4FF0500080F31188BFF36F8FDF
:104A2000BFF34F8FFEE700002DE9F04700B31E46AD
:104A3000144605460F4629B3022E02D1E86B012821
:104A400052D1FFF79BFDEFF311884FF0500080F338
:104A50001188BFF36F8FBFF34F8FA86B022E1FD04B
:104A6000E96B88421CD3002088F31188BDE8F087E9
:104A70004FF0500080F31188BFF36F8FBFF34F8F5B
:104A8000FEE700BF286C0028D6D04FF0500080F31E
:104A90001188BFF36F8FBFF34F8F00BFFEE700BFDA
:104AA00095F84590A86BD5F838A02A6C32B36EB350
:104AB000E8683946FBF7B5FBE968286C2A68091AEB
:104AC0009142E96003D2A96840420844E860B01E00
:104AD000B0FA80F040095146BAF1000F18BF012129
:104AE0000840AAEB000A1EE04FF0500080F3118846
:104AF000BFF36F8FBFF34F8FFEE700BF286890B9F9
:104B0000A86800F061FA0020A8600CE068683946E7
:104B1000FBF787FB296CD5E90102084490426860E5
:104B200001D3286868600AF10100B9F1FF0FA8639A
:104B300010D155F8240FB8B1284600F0A1FA01466B
:104B4000002C4FF0010018BF002913D188F3118801
:104B5000BDE8F08709F1010085F84500012088F3E0
:104B60001188BDE8F08700BF012088F31188BDE8F7
:104B7000F08700BF0120206088F31188BDE8F0872E
:104B80002DE9F04F83B0029290B116460D460446CF
:104B9000002947D000F084F9A0B99EB14FF0500031
:104BA00080F31188BFF36F8FBFF34F8FFEE700BF15
:104BB0004FF0500080F31188BFF36F8FBFF34F8F1A
:104BC000FEE700BFFFF71AFCD4F838A0BAF1000FD7
:104BD00036D0226C52B1D4E902308118E16099429A
:104BE00024BF2168E1602846FBF71BFBAAF1010006
:104BF000A06354F8100F70B1204600F041FA50B194
:104C00004EF60450CEF200004FF080510160BFF329
:104C10004F8FBFF36F8F0124FFF714FC204603B0C2
:104C2000BDE8F08F206C0028B4D04FF0500080F326
:104C30001188BFF36F8FBFF34F8F00BFFEE700BF38
:104C400004F1240801206F464FF000090DF1080B14
:104C50002EE000BFFFF7F6FBFFF7A4FDFFF7CEFB4A
:104C600094F84400FF2808BF84F8449094F8450065
:104C7000FF2808BF84F84590FFF7E4FB3846594603
:104C800000F050F8E0B12046FFF774F900F032FA76
:104C9000FFF7B4FBA66BFFF7D5FB002E3CD0FFF768
:104CA000ADFBD4F838A00020BAF1000F7FF491AF2B
:104CB000029949B3C007CDD03846FFF7DFFCC9E7FA
:104CC000FFF79CFBA66BFFF7BDFB2EB12046FFF75D
:104CD00051F900F00FFAE2E702994046FFF7E0FCD5
:104CE0002046FFF747F900F005FA0028D7D14EF625
:104CF0000450CEF200004FF080510160BFF34F8F9F
:104D0000BFF36F8FCBE700BF0024FFF79BFB20466C
:104D100003B0BDE8F08F00BF0024204603B0BDE81B
:104D2000F08F0000B0B5D8B10D4619B30446FFF7B7
:104D300065FB40F22C0CC2F2000CDCF82420296840
:104D40004B1C21D0D4E9000EDCF83830834221D04E
:104D500072451FD30124FFF775FB2046B0BD00BF8D
:104D60004FF0500080F31188BFF36F8FBFF34F8F68
:104D7000FEE700BF4FF0500080F31188BFF36F8F44
:104D8000BFF34F8FFEE700BF0024FFF75BFB204619
:104D9000B0BD00BFA2EB0E0291420DD9881A286067
:104DA000DCF838002060DCF8240060600024FFF7A5
:104DB00049FB2046B0BD00BF002001242860FFF75A
:104DC00041FB2046B0BD00002DE9F04383B007460B
:104DD0009000984615468946FFF706F9F8B1064651
:104DE0005420FFF701F9B8B10446DDE90A100022AA
:104DF000266384F85120CDE90010384649462A46FA
:104E000043460294FEF7F6FF2046FEF731FF0120ED
:104E100003B0BDE8F08300BF3046FFF72BFB4FF037
:104E2000FF3003B0BDE8F08370B586B00B9CCCB109
:104E30000C9E0EB354250495049D542D26D1049D3B
:104E4000DDF828C0022586F8515005AD3463CDE960
:104E500000C50296FEF7CEFF3046FEF709FF059823
:104E600006B070BD4FF0500080F31188BFF36F8F14
:104E7000BFF34F8FFEE700BF4FF0500080F3118863
:104E8000BFF36F8FBFF34F8FFEE700BF4FF05000AF
:104E900080F31188BFF36F8FBFF34F8FFEE70000E1
:104EA00040F22C00C2F20000416900290FBF01202E
:104EB0008069B0FA80F0400918BF400070470000D8
:104EC0002DE9F04740F22C06C2F20006B06928B185
:104ED000F06A0130F0620020BDE8F087706A10F1DE
:104EE000010AC6F824A020D3306B006850B14FF0FF
:104EF000500080F31188BFF36F8FBFF34F8F00BF57
:104F0000FEE700BF306B716B31637063B06B0130D3
:104F1000B063306B006828B1306BC068C06840680F
:104F200002E000BF4FF0FF303062306A40F2BC2830
:104F30008245C2F2000801D2002434E0306B002424
:104F4000006868B34FF0010916E000BFF86A7168A5
:104F500009FA00F2114300EB8000716008EB800059
:104F60002946FFF733FAF86A3168C96A326B88421A
:104F7000106828BF4C4698B1306BC068C7683D4682
:104F800055F8040F82450DD32846FFF7BDF9B86ADE
:104F90000028DBD007F11800FFF7B6F9D6E700BF0D
:104FA0004FF0FF3030623068C06A00EB800058F884
:104FB0002000012888BF0124B06A002818BF0124FE
:104FC0002046BDE8F0870000F0B581B090B140F216
:104FD0002C07C2F2000704463868A0420ED04FF0FA
:104FE000500080F31188BFF36F8FBFF34F8F00BF66
:104FF000FEE700BF0026304601B0F0BDA06CA8B3AC
:10500000E16A626C013891424FF00006A064F2D070
:105010000028F0D1251D2846FFF776F9002840F238
:10502000BC20C2F200000CD1E16A01EB810250F811
:10503000222032B901227B6802FA01F123EA010140
:105040007960616C0126C1F10702E162A2617A68B0
:1050500006FA01F301EB81011A4300EB81002946B6
:105060007A60FFF7B3F9304601B0F0BD4FF0500061
:1050700080F31188BFF36F8FBFF34F8FFEE70000FF
:1050800070B5C068C5686DB105F118042046FFF71A
:105090003BF940F22C06C2F20006B06960B106F19D
:1050A00064001BE04FF0500080F31188BFF36F8F56
:1050B000BFF34F8FFEE700BF2C1D2046FFF724F9FA
:1050C000E86A0121726881401143716040F2BC219D
:1050D00000EB8000C2F2000101EB80002146FFF7E7
:1050E00075F9E86A3168C96A884292BF00200120D8
:1050F000B06270BD2DE9F04140F22C05C2F200050E
:10510000A86968B1FFF77AF9A8690138A861A869A8
:1051100080B10024FFF796F92046BDE8F08100BF7A
:105120004FF0500080F31188BFF36F8FBFF34F8FA4
:10513000FEE700BF28690028EBD0686E78B340F224
:10514000BC280126C2F20008286FC76807F11800C2
:10515000FFF7DAF83C1D2046FFF7D6F8F86A6968D1
:1051600006FA00F2114300EB8000696008EB800052
:105170002146FFF72BF9F86A2968C96A884228BFD7
:10518000AE62686E0028DFD1286B006820B1286B02
:10519000C068C068406801E04FF0FF302862EC6AE8
:1051A0004CB10126FFF78CFE002818BFAE62013C0F
:1051B000F8D10020E862A86A0028AAD04EF6045070
:1051C000CEF200004FF080510160BFF34F8F0124F9
:1051D000BFF36F8FFFF736F92046BDE8F08100007E
:1051E0000FB4054B10B503A9044A029800F0DAF891
:1051F00010BC5DF814FB0000D53A00080000002048
:1052000002E008C8121F08C1002AFAD1704770478F
:10521000002001E001C1121F002AFBD170470000ED
:105220002DE9FF5F82B00021DDE90430020DDDF8D9
:1052300040B0034318D044F61050A2F2FF3242436C
:105240001514119801281FD0A5EB0B00401C5FEA34
:10525000000A4FF000064E4FDFF83891B046504636
:1052600015D5CAF1000413E0119801244AA30128BE
:1052700001D16FEA0B010298119AC0E90031C0E92F
:10528000024206B0BDE8F09FCBF10000DFE7044624
:105290000021404A491842EB0450CDE9001012E0C9
:1052A000E00707D032463B4640464946FBF7BAF88E
:1052B0008046894632463B4610461946FBF7B2F80F
:1052C00006460F466410002CEAD1DDE90401DDE951
:1052D0000023BAF1000F06DAFBF7A4F842464B466A
:1052E000FBF7A0F805E0FBF70FF942464B46FBF74A
:1052F0000BF904460E460022284BFBF78DF903D824
:105300004FF0FF30014607E00022254B2046314692
:10531000FAF7E1FFFBF767F9102409E0002C0ADB3C
:105320000A220023FAF74CFF039B30321A55641E01
:1053300050EA0102F2D1641C039AC4F1110314442F
:10534000119A012A03D0012208430DD10AE0084333
:1053500004D000204FF0110B119072E7A3EB0B0566
:105360006D1E0DE05B4504DD4FF0000205F1010507
:1053700004E003DA4FF00002A5F10105002AECD0A9
:1053800002981199C0E90231C0E9004579E70000AF
:10539000000014400000F03F300000000000F04327
:1053A0000000E03F2DE9FF4F95B09B468946064639
:1053B00000250FE2252877D100242746F84A01214D
:1053C000059400E0044316F8013F203B01FA03F086
:1053D0001042F7D130782A2811D06FF02F0330789F
:1053E000A0F13002092A16D8059A44F0020402EB13
:1053F000820203EB42021044761C0590EFE759F855
:10540000042B0592002A03DA504244F4005405901C
:1054100044F00204761C30782E2816D116F8010FBD
:1054200044F004042A280DD06FF02F023078A0F148
:105430003003092B09D807EB870302EB4303C71896
:10544000761CF3E759F8047B761C30786C280FD073
:1054500006DC4C2817D068280DD06A2814D104E047
:10546000742810D07A280FD10DE044F400140AE01B
:1054700044F4801401E044F440147278824202D172
:1054800004F58014761C761C307866280BD013DC6B
:10549000582877D009DC002875D04528F6D0462852
:1054A000F4D047281AD19DE118E0632835D064284C
:1054B00079D0652812D195E1702873D008DC67286F
:1054C000F1D069286FD06E280DD06F2806D1B5E0D5
:1054D00073282CD0752875D0782874D05A4617991F
:1054E00090476D1C75E1C4F30250022809D00328CF
:1054F0000DD0D9F8001004280DD00D6009F1040971
:1055000067E1D9F80010EA17C1E90052F6E7D9F8C7
:1055100000100D80F2E70D70F0E719F8041B8DF80C
:10552000001000208DF80100EA46012003E059F840
:1055300004AB4FF0FF3061074FF0000102D40DE0E3
:1055400008F101018846B9420FDA8045F8DB1AF804
:1055500008100029F4D108E008F1010188468142D1
:10556000FADB1AF808100029F6D105985B46A0EB83
:10557000080721463846179A00F094FA284400EBB1
:10558000080507E04DE029E10DE01AF8010B5A4645
:1055900017999047B8F10108F7D25B462146384683
:1055A000179A13E142E00A220092C4F302524FF02C
:1055B000000A022A08D059F804CB032A4FEAEC71FA
:1055C0000AD00DE029E02AE009F1070121F00702E5
:1055D000F2E802C1914609E00FFA8CFC4FEAEC7147
:1055E000042A03D14FFA8CFC4FEAEC71002907DA48
:1055F0000A460021DCF1000C61EB02012D2202E0E1
:10560000220504D52B228DF80420012203E0E207B5
:1056100001D02022F7E7904659E00A2102E010224B
:105620000DE010214FF0000A00910BE010224FF026
:10563000000A44F004040827009203E008224FF017
:10564000000A0092C4F30252022A05D059F804CB92
:105650000021032A08D009E009F1070121F007021F
:10566000F2E802C1914605E01FFA8CFC042A01D140
:105670000CF0FF0C4FF00008220728D5702806D048
:10568000009B83F0100353EA0A0305D00EE040228A
:105690008DF80420012208E05CEA010206D03022E5
:1056A0008DF804208DF8050002229046009B83F0BF
:1056B000080353EA0A030AD15CEA010201D1620736
:1056C00005D530228DF804204FF001087F1E5828A0
:1056D00004D034A003900EA802900DE036A0F9E7A4
:1056E00053466046009AFAF76BFD84460398825C45
:1056F0000298401E029002705CEA0100F0D102980C
:1057000006A9081A00F1200A600702D524F48034A3
:1057100000E00127574502DDA7EB0A0000E000206A
:1057200000EB0A01009005984144401A0590E003FF
:1057300006D45B462146179A059800F0B3F9054454
:10574000002706E001A85A46C05D179990476D1CD6
:105750007F1C4745F6DBE0030CD55B462146179AD4
:10576000059800F09FF9054404E030205A46179947
:1057700090476D1C0099481E00900029F5DC08E058
:10578000029802995A460078491C0291179990474D
:105790006D1CBAF10001AAF1010AF1DC65E100001B
:1057A00009280100303132333435363738396162F7
:1057B00063646566000000003031323334353637BB
:1057C00038394142434445460000000000F058F992
:1057D0000544761C307800287FF4ECAD19B02846DB
:1057E000BDE8F08F620700D4062709F1070222F016
:1057F000070CFCE80223E14603F000485FEA080CCE
:1058000002D00FF2702C0DE05FEA045C02D50FF2BB
:10581000682C07E05FEAC47C02D00FF2602C01E044
:10582000AFF2700C4FF0FF3823F00043CDF850C0BA
:1058300065280CD006DC452809D046281DD047280D
:105840003DD13DE0662818D067287ED138E00021A0
:10585000112F01DB112000E0781CCDE9000106A921
:105860000EA8FFF7DDFCDDE90F010E9A0391002180
:10587000009207F1010A04914DE04FF000400097BB
:10588000CDE9011006A90EA8FFF7CAFCDDE90F0259
:1058900003920E9B11990022DDF80CA00093049254
:1058A00011B9791C00EB010AB7EB0A0004D4C0F16E
:1058B000FF3007F1010A0490AAEB0700019044E0D1
:1058C000012F00DA01270021112F01DD112000E056
:1058D0003846CDE9000106A90EA8FFF7A1FCDDE9D5
:1058E0000F010E9A0391002104910092BA462107FC
:1058F0000CD40399514500DA8A46BAF1010F05DD4F
:10590000009AAAF10101515C302908D0B84202DAAC
:1059100010F1040F06DA0121CDE9011015E0AAF11A
:105920000101E9E7002805DC049901440491AAEB90
:10593000000102E0411C514500DD8A460499401AED
:10594000401C01904FF000400290200704D40198C1
:10595000504501DBCDF8048000208DF84F000298FF
:105960000DF14F07B0F1004F25D02B200E9002987B
:105970004FF0020800280CDA404202902D200E90D1
:1059800007E00A210298FAF771FC3031029007F81B
:10599000011DB8F10001A8F10108F2DC029800280D
:1059A000EFD1791E0E980870307800F0200040F09A
:1059B000450007F8020D12A8C01B00F10708149853
:1059C000007800B1012000EB0A01019801EBE071C1
:1059D00005984144401A401E0590E00306D45B46FA
:1059E0002146179A059800F05DF805441498007850
:1059F00018B15A46179990476D1CE00324D55B46B1
:105A00002146179A059800F04DF805441CE00498CB
:105A1000002807DBDDE90301884203DD0098405CD4
:105A2000179901E0179930205A469047049805F1DC
:105A30000105401C04900198401E019004D12E20C5
:105A40005A46179990476D1CBAF10001AAF1010A54
:105A5000DDDC05E017F8010B5A46179990476D1CDD
:105A6000B8F10001A8F10108F4DC5B462146179A61
:105A70000598ABE62D0000002B0000002000000080
:105A80002DE9F041044600251E461746880404D43B
:105A900005E039462020B0476D1C641EF9D5284624
:105AA000BDE8F0812DE9F041044600251E469046F0
:105AB000C80301D5302700E02027880404D505E07D
:105AC00041463846B0476D1C641EF9D52846BDE8EE
:105AD000F08100000000000000000102030406073E
